{
  "contractName": "TodoList",
  "abi": [
    {
      "inputs": [],
      "name": "taskCount",
      "outputs": [
        {
          "internalType": "uint256",
          "name": "",
          "type": "uint256"
        }
      ],
      "stateMutability": "view",
      "type": "function",
      "constant": true
    }
  ],
  "bytecode": "0x60806040526000805534801561001457600080fd5b5060b3806100236000396000f3fe6080604052348015600f57600080fd5b506004361060285760003560e01c8063b6cb58a514602d575b600080fd5b60336047565b604051603e91906064565b60405180910390f35b60005481565b6000819050919050565b605e81604d565b82525050565b6000602082019050607760008301846057565b9291505056fea26469706673582212204b211ab5d003ad661f10b31fae5d8577c0d0c181701591220e575ab7e682249264736f6c63430008110033",
  "immutableReferences": {},
  "source": "// SPDX-License-Identifier: UNLICENSED \r\npragma solidity ^0.8.17;\r\n\r\ncontract TodoList {\r\n    // This is a state variable, state variables in solidity are written to the blockchain\r\n    // they are called state variables because they represent the state of the blockchain\r\n    // the state of the blockchain is going to change anytime taskCount changes, they're kind of \r\n    // like class variables in OOP.\r\n    // public lets you read task count?\r\n    uint public taskCount = 0; \r\n}\r\n\r\n// in order to connect to the blockchain, truffle.config file needs to be updated ",
  "sourcePath": "D:\\git\\nft-app\\contracts\\TodoList.sol",
  "compiler": {
    "name": "solc",
    "version": "0.8.17+commit.8df45f5f.Emscripten.clang"
  },
  "schemaVersion": "3.4.10",
  "updatedAt": "2022-10-05T04:09:13.056Z",
  "networkType": "ethereum",
  "devdoc": {
    "kind": "dev",
    "methods": {},
    "version": 1
  },
  "userdoc": {
    "kind": "user",
    "methods": {},
    "version": 1
  }
}